{
  "contractName": "Osusu",
  "abi": [
    {
      "anonymous": false,
      "inputs": [
        {
          "indexed": true,
          "internalType": "uint256",
          "name": "poolId",
          "type": "uint256"
        },
        {
          "indexed": false,
          "internalType": "address",
          "name": "contributor",
          "type": "address"
        },
        {
          "indexed": false,
          "internalType": "uint256",
          "name": "amount",
          "type": "uint256"
        }
      ],
      "name": "Contributed",
      "type": "event"
    },
    {
      "anonymous": false,
      "inputs": [
        {
          "indexed": true,
          "internalType": "uint256",
          "name": "poolId",
          "type": "uint256"
        },
        {
          "indexed": false,
          "internalType": "address",
          "name": "recipient",
          "type": "address"
        },
        {
          "indexed": false,
          "internalType": "uint256",
          "name": "amount",
          "type": "uint256"
        }
      ],
      "name": "Distributed",
      "type": "event"
    },
    {
      "anonymous": false,
      "inputs": [
        {
          "indexed": true,
          "internalType": "uint256",
          "name": "poolId",
          "type": "uint256"
        },
        {
          "indexed": false,
          "internalType": "address",
          "name": "member",
          "type": "address"
        }
      ],
      "name": "JoinedPool",
      "type": "event"
    },
    {
      "anonymous": false,
      "inputs": [
        {
          "indexed": true,
          "internalType": "uint256",
          "name": "poolId",
          "type": "uint256"
        }
      ],
      "name": "PoolClosed",
      "type": "event"
    },
    {
      "anonymous": false,
      "inputs": [
        {
          "indexed": true,
          "internalType": "uint256",
          "name": "poolId",
          "type": "uint256"
        },
        {
          "indexed": false,
          "internalType": "address",
          "name": "creator",
          "type": "address"
        },
        {
          "indexed": false,
          "internalType": "uint256",
          "name": "contributionAmount",
          "type": "uint256"
        },
        {
          "indexed": false,
          "internalType": "uint256",
          "name": "startTime",
          "type": "uint256"
        },
        {
          "indexed": false,
          "internalType": "uint256",
          "name": "joinEndTime",
          "type": "uint256"
        },
        {
          "indexed": false,
          "internalType": "uint256",
          "name": "contributionFrequency",
          "type": "uint256"
        },
        {
          "indexed": false,
          "internalType": "uint256",
          "name": "closeTime",
          "type": "uint256"
        },
        {
          "indexed": false,
          "internalType": "uint32",
          "name": "joinCode",
          "type": "uint32"
        }
      ],
      "name": "PoolCreated",
      "type": "event"
    },
    {
      "inputs": [
        {
          "internalType": "uint256",
          "name": "",
          "type": "uint256"
        },
        {
          "internalType": "address",
          "name": "",
          "type": "address"
        }
      ],
      "name": "hasContributed",
      "outputs": [
        {
          "internalType": "bool",
          "name": "",
          "type": "bool"
        }
      ],
      "stateMutability": "view",
      "type": "function",
      "constant": true
    },
    {
      "inputs": [
        {
          "internalType": "uint256",
          "name": "",
          "type": "uint256"
        }
      ],
      "name": "pools",
      "outputs": [
        {
          "internalType": "address",
          "name": "creator",
          "type": "address"
        },
        {
          "internalType": "uint256",
          "name": "contributionAmount",
          "type": "uint256"
        },
        {
          "internalType": "uint256",
          "name": "poolBalance",
          "type": "uint256"
        },
        {
          "internalType": "uint256",
          "name": "distributionIndex",
          "type": "uint256"
        },
        {
          "internalType": "uint256",
          "name": "startTime",
          "type": "uint256"
        },
        {
          "internalType": "uint256",
          "name": "joinEndTime",
          "type": "uint256"
        },
        {
          "internalType": "uint256",
          "name": "closeTime",
          "type": "uint256"
        },
        {
          "internalType": "bool",
          "name": "isActive",
          "type": "bool"
        },
        {
          "internalType": "uint256",
          "name": "contributionFrequency",
          "type": "uint256"
        },
        {
          "internalType": "uint32",
          "name": "joinCode",
          "type": "uint32"
        }
      ],
      "stateMutability": "view",
      "type": "function",
      "constant": true
    },
    {
      "inputs": [],
      "name": "generateRandomSixDigitNumber",
      "outputs": [
        {
          "internalType": "uint32",
          "name": "",
          "type": "uint32"
        }
      ],
      "stateMutability": "nonpayable",
      "type": "function"
    },
    {
      "inputs": [
        {
          "internalType": "uint256",
          "name": "_contributionAmount",
          "type": "uint256"
        },
        {
          "internalType": "uint256",
          "name": "_contributionFrequency",
          "type": "uint256"
        },
        {
          "internalType": "uint256",
          "name": "_startDuration",
          "type": "uint256"
        },
        {
          "internalType": "uint256",
          "name": "_closeDuration",
          "type": "uint256"
        }
      ],
      "name": "createPool",
      "outputs": [
        {
          "internalType": "uint256",
          "name": "",
          "type": "uint256"
        },
        {
          "internalType": "uint32",
          "name": "",
          "type": "uint32"
        }
      ],
      "stateMutability": "nonpayable",
      "type": "function"
    },
    {
      "inputs": [
        {
          "internalType": "uint256",
          "name": "_poolId",
          "type": "uint256"
        }
      ],
      "name": "joinPool",
      "outputs": [],
      "stateMutability": "nonpayable",
      "type": "function"
    },
    {
      "inputs": [
        {
          "internalType": "uint256",
          "name": "_poolId",
          "type": "uint256"
        }
      ],
      "name": "contribute",
      "outputs": [],
      "stateMutability": "payable",
      "type": "function",
      "payable": true
    },
    {
      "inputs": [
        {
          "internalType": "uint256",
          "name": "_poolId",
          "type": "uint256"
        }
      ],
      "name": "closePool",
      "outputs": [],
      "stateMutability": "nonpayable",
      "type": "function"
    }
  ],
  "bytecode": "0x60806040526000805534801561001457600080fd5b50611c40806100246000396000f3fe6080604052600436106100705760003560e01c8063a88bb7e21161004e578063a88bb7e214610105578063ac4afa3814610130578063b5b96ae014610176578063c1cbbca7146101b357610070565b80631377984f1461007557806334e7a19f146100b357806337de615f146100dc575b600080fd5b34801561008157600080fd5b5061009c600480360381019061009791906112bb565b6101cf565b6040516100aa929190611350565b60405180910390f35b3480156100bf57600080fd5b506100da60048036038101906100d59190611379565b6104ac565b005b3480156100e857600080fd5b5061010360048036038101906100fe9190611379565b610722565b005b34801561011157600080fd5b5061011a610978565b60405161012791906113a6565b60405180910390f35b34801561013c57600080fd5b5061015760048036038101906101529190611379565b610a52565b60405161016d9a9998979695949392919061141d565b60405180910390f35b34801561018257600080fd5b5061019d600480360381019061019891906114e5565b610af3565b6040516101aa9190611525565b60405180910390f35b6101cd60048036038101906101c89190611379565b610b22565b005b6000806000429050600085826101e5919061156f565b9050600085836101f5919061156f565b905060008890506000600167ffffffffffffffff811115610219576102186115a3565b5b6040519080825280602002602001820160405280156102475781602001602082028036833780820191505090505b509050338160008151811061025f5761025e6115d2565b5b602002602001019073ffffffffffffffffffffffffffffffffffffffff16908173ffffffffffffffffffffffffffffffffffffffff168152505060006102a3610978565b905060016040518061016001604052803373ffffffffffffffffffffffffffffffffffffffff1681526020018481526020018e815260200160008152602001600081526020018881526020018781526020018681526020016001151581526020018581526020018363ffffffff1681525090806001815401808255809150506001900390600052602060002090600b020160009091909190915060008201518160000160006101000a81548173ffffffffffffffffffffffffffffffffffffffff021916908373ffffffffffffffffffffffffffffffffffffffff16021790555060208201518160010190805190602001906103a09291906111b8565b5060408201518160020155606082015181600301556080820151816004015560a0820151816005015560c0820151816006015560e082015181600701556101008201518160080160006101000a81548160ff021916908315150217905550610120820151816009015561014082015181600a0160006101000a81548163ffffffff021916908363ffffffff1602179055505050600180805490506104449190611601565b7f2d8c802d50378117148b3b9c98abbbf96ae5ad79845a7eb23e32602b4362ef04338e8989888a8860405161047f9796959493929190611635565b60405180910390a2600180805490506104989190611601565b819750975050505050505094509492505050565b80600181815481106104c1576104c06115d2565b5b90600052602060002090600b020160080160009054906101000a900460ff1661051f576040517f08c379a000000000000000000000000000000000000000000000000000000000815260040161051690611701565b60405180910390fd5b60018281548110610533576105326115d2565b5b90600052602060002090600b0201600601544210610586576040517f08c379a000000000000000000000000000000000000000000000000000000000815260040161057d90611793565b60405180910390fd5b60006001838154811061059c5761059b6115d2565b5b90600052602060002090600b0201905060005b816001018054905081101561067f573373ffffffffffffffffffffffffffffffffffffffff168260010182815481106105eb576105ea6115d2565b5b9060005260206000200160009054906101000a900473ffffffffffffffffffffffffffffffffffffffff1673ffffffffffffffffffffffffffffffffffffffff160361066c576040517f08c379a0000000000000000000000000000000000000000000000000000000008152600401610663906117ff565b60405180910390fd5b80806106779061181f565b9150506105af565b5080600101339080600181540180825580915050600190039060005260206000200160009091909190916101000a81548173ffffffffffffffffffffffffffffffffffffffff021916908373ffffffffffffffffffffffffffffffffffffffff160217905550827ff699e742bd69bd778207e5ea6eb05fcff0f4fe72ec9832671235c1abb0a54dac336040516107159190611867565b60405180910390a2505050565b8060018181548110610737576107366115d2565b5b90600052602060002090600b020160080160009054906101000a900460ff16610795576040517f08c379a000000000000000000000000000000000000000000000000000000000815260040161078c90611701565b60405180910390fd5b81600181815481106107aa576107a96115d2565b5b90600052602060002090600b020160000160009054906101000a900473ffffffffffffffffffffffffffffffffffffffff1673ffffffffffffffffffffffffffffffffffffffff163373ffffffffffffffffffffffffffffffffffffffff1614610849576040517f08c379a0000000000000000000000000000000000000000000000000000000008152600401610840906118f4565b60405180910390fd5b60006001848154811061085f5761085e6115d2565b5b90600052602060002090600b020160080160006101000a81548160ff0219169083151502179055506001838154811061089b5761089a6115d2565b5b90600052602060002090600b0201600080820160006101000a81549073ffffffffffffffffffffffffffffffffffffffff02191690556001820160006108e19190611242565b6002820160009055600382016000905560048201600090556005820160009055600682016000905560078201600090556008820160006101000a81549060ff02191690556009820160009055600a820160006101000a81549063ffffffff02191690555050827f925a19753e677c9dc36a80e0fc824ca0c5b1afde494872b43daccab9ffeaffd460405160405180910390a2505050565b600080620f424042336000546040516020016109969392919061197d565b6040516020818303038152906040528051906020012060001c6109b991906119e9565b90505b620186a0811015610a3457600a6000546040516020016109dc9190611a1a565b6040516020818303038152906040528051906020012060001c6109ff91906119e9565b600a82610a0c9190611a35565b610a16919061156f565b9050600080815480929190610a2a9061181f565b91905055506109bc565b600080815480929190610a469061181f565b91905055508091505090565b60018181548110610a6257600080fd5b90600052602060002090600b02016000915090508060000160009054906101000a900473ffffffffffffffffffffffffffffffffffffffff16908060020154908060030154908060040154908060050154908060060154908060070154908060080160009054906101000a900460ff169080600901549080600a0160009054906101000a900463ffffffff1690508a565b60026020528160005260406000206020528060005260406000206000915091509054906101000a900460ff1681565b8060018181548110610b3757610b366115d2565b5b90600052602060002090600b020160080160009054906101000a900460ff16610b95576040517f08c379a0000000000000000000000000000000000000000000000000000000008152600401610b8c90611701565b60405180910390fd5b60018281548110610ba957610ba86115d2565b5b90600052602060002090600b020160060154421115610bfd576040517f08c379a0000000000000000000000000000000000000000000000000000000008152600401610bf490611793565b60405180910390fd5b600060018381548110610c1357610c126115d2565b5b90600052602060002090600b0201905080600201543414610c69576040517f08c379a0000000000000000000000000000000000000000000000000000000008152600401610c6090611ac3565b60405180910390fd5b6002600084815260200190815260200160002060003373ffffffffffffffffffffffffffffffffffffffff1673ffffffffffffffffffffffffffffffffffffffff16815260200190815260200160002060009054906101000a900460ff1615610d07576040517f08c379a0000000000000000000000000000000000000000000000000000000008152600401610cfe90611b2f565b60405180910390fd5b34816003016000828254610d1b919061156f565b9250508190555060016002600085815260200190815260200160002060003373ffffffffffffffffffffffffffffffffffffffff1673ffffffffffffffffffffffffffffffffffffffff16815260200190815260200160002060006101000a81548160ff021916908315150217905550827fb2ed2e021651f85a4754a44651fc09ac5141bc0329ce4dfe8dd712a5d04a8b393334604051610dbd929190611b4f565b60405180910390a2610dce83610de2565b15610ddd57610ddc83610ee7565b5b505050565b60008060018381548110610df957610df86115d2565b5b90600052602060002090600b0201905060005b8160010180549050811015610edb57600260008581526020019081526020016000206000836001018381548110610e4657610e456115d2565b5b9060005260206000200160009054906101000a900473ffffffffffffffffffffffffffffffffffffffff1673ffffffffffffffffffffffffffffffffffffffff1673ffffffffffffffffffffffffffffffffffffffff16815260200190815260200160002060009054906101000a900460ff16610ec857600092505050610ee2565b8080610ed39061181f565b915050610e0c565b5060019150505b919050565b8060018181548110610efc57610efb6115d2565b5b90600052602060002090600b020160080160009054906101000a900460ff16610f5a576040517f08c379a0000000000000000000000000000000000000000000000000000000008152600401610f5190611701565b60405180910390fd5b600060018381548110610f7057610f6f6115d2565b5b90600052602060002090600b0201905080600601544211610fc6576040517f08c379a0000000000000000000000000000000000000000000000000000000008152600401610fbd90611bea565b60405180910390fd5b60008160010182600101805490508360040154610fe391906119e9565b81548110610ff457610ff36115d2565b5b9060005260206000200160009054906101000a900473ffffffffffffffffffffffffffffffffffffffff1690508073ffffffffffffffffffffffffffffffffffffffff166108fc83600301549081150290604051600060405180830381858888f1935050505015801561106b573d6000803e3d6000fd5b50837fa7932e9c92f31e1ed56b29d00bbe669a97484dc24de28dd9c8c0429df7f358478284600301546040516110a2929190611b4f565b60405180910390a2600082600301819055508160040160008154809291906110c99061181f565b919050555060005b826001018054905081101561119c57600060026000878152602001908152602001600020600085600101848154811061110d5761110c6115d2565b5b9060005260206000200160009054906101000a900473ffffffffffffffffffffffffffffffffffffffff1673ffffffffffffffffffffffffffffffffffffffff1673ffffffffffffffffffffffffffffffffffffffff16815260200190815260200160002060006101000a81548160ff02191690831515021790555080806111949061181f565b9150506110d1565b50816007015442106111b2576111b184610722565b5b50505050565b828054828255906000526020600020908101928215611231579160200282015b828111156112305782518260006101000a81548173ffffffffffffffffffffffffffffffffffffffff021916908373ffffffffffffffffffffffffffffffffffffffff160217905550916020019190600101906111d8565b5b50905061123e9190611263565b5090565b50805460008255906000526020600020908101906112609190611263565b50565b5b8082111561127c576000816000905550600101611264565b5090565b600080fd5b6000819050919050565b61129881611285565b81146112a357600080fd5b50565b6000813590506112b58161128f565b92915050565b600080600080608085870312156112d5576112d4611280565b5b60006112e3878288016112a6565b94505060206112f4878288016112a6565b9350506040611305878288016112a6565b9250506060611316878288016112a6565b91505092959194509250565b61132b81611285565b82525050565b600063ffffffff82169050919050565b61134a81611331565b82525050565b60006040820190506113656000830185611322565b6113726020830184611341565b9392505050565b60006020828403121561138f5761138e611280565b5b600061139d848285016112a6565b91505092915050565b60006020820190506113bb6000830184611341565b92915050565b600073ffffffffffffffffffffffffffffffffffffffff82169050919050565b60006113ec826113c1565b9050919050565b6113fc816113e1565b82525050565b60008115159050919050565b61141781611402565b82525050565b600061014082019050611433600083018d6113f3565b611440602083018c611322565b61144d604083018b611322565b61145a606083018a611322565b6114676080830189611322565b61147460a0830188611322565b61148160c0830187611322565b61148e60e083018661140e565b61149c610100830185611322565b6114aa610120830184611341565b9b9a5050505050505050505050565b6114c2816113e1565b81146114cd57600080fd5b50565b6000813590506114df816114b9565b92915050565b600080604083850312156114fc576114fb611280565b5b600061150a858286016112a6565b925050602061151b858286016114d0565b9150509250929050565b600060208201905061153a600083018461140e565b92915050565b7f4e487b7100000000000000000000000000000000000000000000000000000000600052601160045260246000fd5b600061157a82611285565b915061158583611285565b925082820190508082111561159d5761159c611540565b5b92915050565b7f4e487b7100000000000000000000000000000000000000000000000000000000600052604160045260246000fd5b7f4e487b7100000000000000000000000000000000000000000000000000000000600052603260045260246000fd5b600061160c82611285565b915061161783611285565b925082820390508181111561162f5761162e611540565b5b92915050565b600060e08201905061164a600083018a6113f3565b6116576020830189611322565b6116646040830188611322565b6116716060830187611322565b61167e6080830186611322565b61168b60a0830185611322565b61169860c0830184611341565b98975050505050505050565b600082825260208201905092915050565b7f506f6f6c206973206e6f74206163746976652e00000000000000000000000000600082015250565b60006116eb6013836116a4565b91506116f6826116b5565b602082019050919050565b6000602082019050818103600083015261171a816116de565b9050919050565b7f54686520636f6e747269627574696f6e20706572696f642068617320656e646560008201527f642e000000000000000000000000000000000000000000000000000000000000602082015250565b600061177d6022836116a4565b915061178882611721565b604082019050919050565b600060208201905081810360008301526117ac81611770565b9050919050565b7f416c72656164792061206d656d6265722e000000000000000000000000000000600082015250565b60006117e96011836116a4565b91506117f4826117b3565b602082019050919050565b60006020820190508181036000830152611818816117dc565b9050919050565b600061182a82611285565b91507fffffffffffffffffffffffffffffffffffffffffffffffffffffffffffffffff820361185c5761185b611540565b5b600182019050919050565b600060208201905061187c60008301846113f3565b92915050565b7f4f6e6c792074686520706f6f6c2063726561746f722063616e20706572666f7260008201527f6d207468697320616374696f6e2e000000000000000000000000000000000000602082015250565b60006118de602e836116a4565b91506118e982611882565b604082019050919050565b6000602082019050818103600083015261190d816118d1565b9050919050565b6000819050919050565b61192f61192a82611285565b611914565b82525050565b60008160601b9050919050565b600061194d82611935565b9050919050565b600061195f82611942565b9050919050565b611977611972826113e1565b611954565b82525050565b6000611989828661191e565b6020820191506119998285611966565b6014820191506119a9828461191e565b602082019150819050949350505050565b7f4e487b7100000000000000000000000000000000000000000000000000000000600052601260045260246000fd5b60006119f482611285565b91506119ff83611285565b925082611a0f57611a0e6119ba565b5b828206905092915050565b6000611a26828461191e565b60208201915081905092915050565b6000611a4082611285565b9150611a4b83611285565b9250828202611a5981611285565b91508282048414831517611a7057611a6f611540565b5b5092915050565b7f496e636f727265637420616d6f756e742e000000000000000000000000000000600082015250565b6000611aad6011836116a4565b9150611ab882611a77565b602082019050919050565b60006020820190508181036000830152611adc81611aa0565b9050919050565b7f416c726561647920636f6e7472696275746564207468697320726f756e642e00600082015250565b6000611b19601f836116a4565b9150611b2482611ae3565b602082019050919050565b60006020820190508181036000830152611b4881611b0c565b9050919050565b6000604082019050611b6460008301856113f3565b611b716020830184611322565b9392505050565b7f54686520636f6e747269627574696f6e20706572696f64206973207374696c6c60008201527f206163746976652e000000000000000000000000000000000000000000000000602082015250565b6000611bd46028836116a4565b9150611bdf82611b78565b604082019050919050565b60006020820190508181036000830152611c0381611bc7565b905091905056fea26469706673582212206351944ebe2908990135ef4ae4075514a6565c7c784e587bbc64538f7c44b34864736f6c63430008130033",
  "immutableReferences": {},
  "source": "// SPDX-License-Identifier: MIT\npragma solidity ^0.8.19;\n\ncontract Osusu {\n    struct Pool {\n        address creator;\n        address[] members;\n        uint256 contributionAmount;\n        uint256 poolBalance;\n        uint256 distributionIndex;\n        uint256 startTime;\n        uint256 joinEndTime;\n        uint256 closeTime;\n        bool isActive;\n        uint256 contributionFrequency;\n        uint32 joinCode;\n    }\n    uint256 private nonce = 0; // Nonce to ensure different results for subsequent c\n    Pool[] public pools;\n    mapping(uint256 => mapping(address => bool)) public hasContributed;\n\n    event PoolCreated(\n        uint256 indexed poolId,\n        address creator,\n        uint256 contributionAmount,\n        uint256 startTime,\n        uint256 joinEndTime,\n        uint256 contributionFrequency,\n        uint256 closeTime,\n        uint32 joinCode\n    );\n    event JoinedPool(uint256 indexed poolId, address member);\n    event Contributed(\n        uint256 indexed poolId,\n        address contributor,\n        uint256 amount\n    );\n    event Distributed(\n        uint256 indexed poolId,\n        address recipient,\n        uint256 amount\n    );\n    event PoolClosed(uint256 indexed poolId);\n\n    // Modifier to check pool active status\n    modifier isPoolActive(uint256 _poolId) {\n        require(pools[_poolId].isActive, \"Pool is not active.\");\n        _;\n    }\n\n    // Modifier to check if the caller is the pool's creator\n    modifier isPoolCreator(uint256 _poolId) {\n        require(\n            msg.sender == pools[_poolId].creator,\n            \"Only the pool creator can perform this action.\"\n        );\n        _;\n    }\n    function generateRandomSixDigitNumber() public returns (uint32) {\n        uint256 random = uint256(keccak256(abi.encodePacked(\n            block.timestamp, // Use timestamp to introduce variability\n            msg.sender,      // Use msg.sender to make the outcome unique per user\n            nonce            // Use a nonce to make it unique per transaction\n        ))) % 1000000;      // Modulo to ensure it is a six-digit number\n\n        while(random < 100000) {  // Ensure the number is always six digits\n            random = (random * 10) + (uint256(keccak256(abi.encodePacked(nonce))) % 10);\n            nonce++;  // Increment nonce to avoid repetition in the next call\n        }\n\n        nonce++;  // Increment nonce to ensure different results for the next call\n        return uint32(random);\n    }\n\n    // Create a new osusu pool with durations\n    function createPool(\n        uint256 _contributionAmount,\n        uint256 _contributionFrequency,\n        uint256 _startDuration,\n        uint256 _closeDuration\n    ) public returns (uint256, uint32) {\n        uint256 startTime = block.timestamp;\n        uint256 joinEndTime = startTime + _startDuration;\n        uint256 closeTime = startTime + _closeDuration;\n        uint256 contributionFrequency = _contributionFrequency;\n\n        address[] memory initialMembers = new address[](1);\n        initialMembers[0] = msg.sender; // Creator is the first member\n        uint32 joinCode = generateRandomSixDigitNumber();\n        pools.push(\n            Pool(\n                msg.sender,\n                initialMembers,\n                _contributionAmount,\n                0,\n                0,\n                startTime,\n                joinEndTime,\n                closeTime,\n                true,\n                contributionFrequency,\n                joinCode\n            )\n        );\n        emit PoolCreated(\n            pools.length - 1,\n            msg.sender,\n            _contributionAmount,\n            startTime,\n            joinEndTime,\n            contributionFrequency,\n            closeTime, \n            joinCode\n        );\n        return (pools.length - 1, joinCode);\n    }\n\n    // Join an existing pool\n    function joinPool(uint256 _poolId) public isPoolActive(_poolId) {\n        require(\n            block.timestamp < pools[_poolId].joinEndTime,\n            \"The contribution period has ended.\"\n        );\n        // require (\n        //     _poolCode == pools[_poolId].joinCode,\n        //     \"Invalid join code.\"\n        // );\n        \n        Pool storage pool = pools[_poolId];\n        for (uint i = 0; i < pool.members.length; i++) {\n            require(pool.members[i] != msg.sender, \"Already a member.\");\n        }\n        pool.members.push(msg.sender);\n\n        emit JoinedPool(_poolId, msg.sender);\n    }\n\n    // Contribute to the pool\n    function contribute(uint256 _poolId) public payable isPoolActive(_poolId) {\n        require(\n            block.timestamp <= pools[_poolId].joinEndTime,\n            \"The contribution period has ended.\"\n        );\n        Pool storage pool = pools[_poolId];\n        require(msg.value == pool.contributionAmount, \"Incorrect amount.\");\n        require(\n            !hasContributed[_poolId][msg.sender],\n            \"Already contributed this round.\"\n        );\n\n        pool.poolBalance += msg.value;\n        hasContributed[_poolId][msg.sender] = true;\n        emit Contributed(_poolId, msg.sender, msg.value);\n\n        // Check if all members have contributed, then trigger distribution\n        if (checkAllContributed(_poolId)) {\n            distribute(_poolId);\n        }\n    }\n\n    // Check if all members have contributed for the current round\n    function checkAllContributed(uint256 _poolId) internal view returns (bool) {\n        Pool storage pool = pools[_poolId];\n        for (uint i = 0; i < pool.members.length; i++) {\n            if (!hasContributed[_poolId][pool.members[i]]) {\n                return false;\n            }\n        }\n        return true;\n    }\n\n    // Distribute the pool balance to the next member in line\n    function distribute(uint256 _poolId) internal isPoolActive(_poolId) {\n        Pool storage pool = pools[_poolId];\n        require(\n            block.timestamp > pool.joinEndTime,\n            \"The contribution period is still active.\"\n        );\n        address recipient = pool.members[\n            pool.distributionIndex % pool.members.length\n        ];\n        payable(recipient).transfer(pool.poolBalance);\n        emit Distributed(_poolId, recipient, pool.poolBalance);\n\n        // Reset for the next round\n        pool.poolBalance = 0;\n        pool.distributionIndex++;\n        for (uint i = 0; i < pool.members.length; i++) {\n            hasContributed[_poolId][pool.members[i]] = false;\n        }\n\n        // Check if pool should be closed\n        if (block.timestamp >= pool.closeTime) {\n            closePool(_poolId);\n        }\n    }\n\n    // Close the pool\n    function closePool(\n        uint256 _poolId\n    ) public isPoolActive(_poolId) isPoolCreator(_poolId) {\n        pools[_poolId].isActive = false;\n        delete pools[_poolId];\n        emit PoolClosed(_poolId);\n    }\n}\n",
  "sourcePath": "/Users/Munachi/Documents/GitHub/ComFi/contracts/Osusu.sol",
  "compiler": {
    "name": "solc",
    "version": "0.8.19+commit.7dd6d404.Emscripten.clang"
  },
  "schemaVersion": "3.4.16",
  "updatedAt": "2024-04-16T00:04:58.892Z",
  "networkType": "ethereum",
  "devdoc": {
    "kind": "dev",
    "methods": {},
    "version": 1
  },
  "userdoc": {
    "kind": "user",
    "methods": {},
    "version": 1
  }
}